{
  "contractName": "PhiAlphaBeta",
  "abi": [
    {
      "inputs": [],
      "stateMutability": "nonpayable",
      "type": "constructor"
    },
    {
      "anonymous": false,
      "inputs": [
        {
          "indexed": true,
          "internalType": "address",
          "name": "owner",
          "type": "address"
        },
        {
          "indexed": true,
          "internalType": "address",
          "name": "spender",
          "type": "address"
        },
        {
          "indexed": false,
          "internalType": "uint256",
          "name": "value",
          "type": "uint256"
        }
      ],
      "name": "Approval",
      "type": "event"
    },
    {
      "anonymous": false,
      "inputs": [
        {
          "indexed": true,
          "internalType": "address",
          "name": "from",
          "type": "address"
        },
        {
          "indexed": true,
          "internalType": "address",
          "name": "to",
          "type": "address"
        },
        {
          "indexed": false,
          "internalType": "uint256",
          "name": "value",
          "type": "uint256"
        }
      ],
      "name": "Transfer",
      "type": "event"
    },
    {
      "inputs": [
        {
          "internalType": "address",
          "name": "owner",
          "type": "address"
        },
        {
          "internalType": "address",
          "name": "spender",
          "type": "address"
        }
      ],
      "name": "allowance",
      "outputs": [
        {
          "internalType": "uint256",
          "name": "",
          "type": "uint256"
        }
      ],
      "stateMutability": "view",
      "type": "function"
    },
    {
      "inputs": [
        {
          "internalType": "address",
          "name": "spender",
          "type": "address"
        },
        {
          "internalType": "uint256",
          "name": "amount",
          "type": "uint256"
        }
      ],
      "name": "approve",
      "outputs": [
        {
          "internalType": "bool",
          "name": "",
          "type": "bool"
        }
      ],
      "stateMutability": "nonpayable",
      "type": "function"
    },
    {
      "inputs": [
        {
          "internalType": "address",
          "name": "account",
          "type": "address"
        }
      ],
      "name": "balanceOf",
      "outputs": [
        {
          "internalType": "uint256",
          "name": "",
          "type": "uint256"
        }
      ],
      "stateMutability": "view",
      "type": "function"
    },
    {
      "inputs": [],
      "name": "decimals",
      "outputs": [
        {
          "internalType": "uint8",
          "name": "",
          "type": "uint8"
        }
      ],
      "stateMutability": "view",
      "type": "function"
    },
    {
      "inputs": [
        {
          "internalType": "address",
          "name": "spender",
          "type": "address"
        },
        {
          "internalType": "uint256",
          "name": "subtractedValue",
          "type": "uint256"
        }
      ],
      "name": "decreaseAllowance",
      "outputs": [
        {
          "internalType": "bool",
          "name": "",
          "type": "bool"
        }
      ],
      "stateMutability": "nonpayable",
      "type": "function"
    },
    {
      "inputs": [
        {
          "internalType": "address",
          "name": "spender",
          "type": "address"
        },
        {
          "internalType": "uint256",
          "name": "addedValue",
          "type": "uint256"
        }
      ],
      "name": "increaseAllowance",
      "outputs": [
        {
          "internalType": "bool",
          "name": "",
          "type": "bool"
        }
      ],
      "stateMutability": "nonpayable",
      "type": "function"
    },
    {
      "inputs": [],
      "name": "minter",
      "outputs": [
        {
          "internalType": "address",
          "name": "",
          "type": "address"
        }
      ],
      "stateMutability": "view",
      "type": "function"
    },
    {
      "inputs": [],
      "name": "name",
      "outputs": [
        {
          "internalType": "string",
          "name": "",
          "type": "string"
        }
      ],
      "stateMutability": "view",
      "type": "function"
    },
    {
      "inputs": [],
      "name": "symbol",
      "outputs": [
        {
          "internalType": "string",
          "name": "",
          "type": "string"
        }
      ],
      "stateMutability": "view",
      "type": "function"
    },
    {
      "inputs": [],
      "name": "totalSupply",
      "outputs": [
        {
          "internalType": "uint256",
          "name": "",
          "type": "uint256"
        }
      ],
      "stateMutability": "view",
      "type": "function"
    },
    {
      "inputs": [
        {
          "internalType": "address",
          "name": "recipient",
          "type": "address"
        },
        {
          "internalType": "uint256",
          "name": "amount",
          "type": "uint256"
        }
      ],
      "name": "transfer",
      "outputs": [
        {
          "internalType": "bool",
          "name": "",
          "type": "bool"
        }
      ],
      "stateMutability": "nonpayable",
      "type": "function"
    },
    {
      "inputs": [
        {
          "internalType": "address",
          "name": "sender",
          "type": "address"
        },
        {
          "internalType": "address",
          "name": "recipient",
          "type": "address"
        },
        {
          "internalType": "uint256",
          "name": "amount",
          "type": "uint256"
        }
      ],
      "name": "transferFrom",
      "outputs": [
        {
          "internalType": "bool",
          "name": "",
          "type": "bool"
        }
      ],
      "stateMutability": "nonpayable",
      "type": "function"
    },
    {
      "inputs": [
        {
          "internalType": "address",
          "name": "newMinter",
          "type": "address"
        }
      ],
      "name": "assignMinter",
      "outputs": [],
      "stateMutability": "nonpayable",
      "type": "function"
    },
    {
      "inputs": [
        {
          "internalType": "uint256",
          "name": "amount",
          "type": "uint256"
        }
      ],
      "name": "mint",
      "outputs": [],
      "stateMutability": "nonpayable",
      "type": "function"
    }
  ],
  "bytecode": "0x60806040523480156200001157600080fd5b506040518060400160405280600781526020017f354142636f696e000000000000000000000000000000000000000000000000008152506040518060400160405280600381526020017f35414200000000000000000000000000000000000000000000000000000000008152508160039080519060200190620000969291906200029a565b508060049080519060200190620000af9291906200029a565b50505033600560006101000a81548173ffffffffffffffffffffffffffffffffffffffff021916908373ffffffffffffffffffffffffffffffffffffffff1602179055506200012a600560009054906101000a900473ffffffffffffffffffffffffffffffffffffffff16620f42406200013060201b60201c565b620004f6565b600073ffffffffffffffffffffffffffffffffffffffff168273ffffffffffffffffffffffffffffffffffffffff161415620001a3576040517f08c379a00000000000000000000000000000000000000000000000000000000081526004016200019a9062000382565b60405180910390fd5b620001b7600083836200029560201b60201c565b8060026000828254620001cb9190620003d2565b92505081905550806000808473ffffffffffffffffffffffffffffffffffffffff1673ffffffffffffffffffffffffffffffffffffffff1681526020019081526020016000206000828254620002229190620003d2565b925050819055508173ffffffffffffffffffffffffffffffffffffffff16600073ffffffffffffffffffffffffffffffffffffffff167fddf252ad1be2c89b69c2b068fc378daa952ba7f163c4a11628f55a4df523b3ef83604051620002899190620003a4565b60405180910390a35050565b505050565b828054620002a89062000439565b90600052602060002090601f016020900481019282620002cc576000855562000318565b82601f10620002e757805160ff191683800117855562000318565b8280016001018555821562000318579182015b8281111562000317578251825591602001919060010190620002fa565b5b5090506200032791906200032b565b5090565b5b80821115620003465760008160009055506001016200032c565b5090565b600062000359601f83620003c1565b91506200036682620004cd565b602082019050919050565b6200037c816200042f565b82525050565b600060208201905081810360008301526200039d816200034a565b9050919050565b6000602082019050620003bb600083018462000371565b92915050565b600082825260208201905092915050565b6000620003df826200042f565b9150620003ec836200042f565b9250827fffffffffffffffffffffffffffffffffffffffffffffffffffffffffffffffff038211156200042457620004236200046f565b5b828201905092915050565b6000819050919050565b600060028204905060018216806200045257607f821691505b602082108114156200046957620004686200049e565b5b50919050565b7f4e487b7100000000000000000000000000000000000000000000000000000000600052601160045260246000fd5b7f4e487b7100000000000000000000000000000000000000000000000000000000600052602260045260246000fd5b7f45524332303a206d696e7420746f20746865207a65726f206164647265737300600082015250565b61195b80620005066000396000f3fe608060405234801561001057600080fd5b50600436106100ea5760003560e01c80636004e1401161008c578063a0712d6811610066578063a0712d6814610261578063a457c2d71461027d578063a9059cbb146102ad578063dd62ed3e146102dd576100ea565b80636004e140146101f757806370a082311461021357806395d89b4114610243576100ea565b806318160ddd116100c857806318160ddd1461015b57806323b872dd14610179578063313ce567146101a957806339509351146101c7576100ea565b806306fdde03146100ef578063075461721461010d578063095ea7b31461012b575b600080fd5b6100f761030d565b60405161010491906112a0565b60405180910390f35b61011561039f565b604051610122919061126a565b60405180910390f35b61014560048036038101906101409190611032565b6103c5565b6040516101529190611285565b60405180910390f35b6101636103e3565b6040516101709190611402565b60405180910390f35b610193600480360381019061018e9190610fe3565b6103ed565b6040516101a09190611285565b60405180910390f35b6101b16104ee565b6040516101be919061141d565b60405180910390f35b6101e160048036038101906101dc9190611032565b6104f7565b6040516101ee9190611285565b60405180910390f35b610211600480360381019061020c9190610f7e565b6105a3565b005b61022d60048036038101906102289190610f7e565b610677565b60405161023a9190611402565b60405180910390f35b61024b6106bf565b60405161025891906112a0565b60405180910390f35b61027b6004803603810190610276919061106e565b610751565b005b61029760048036038101906102929190611032565b610810565b6040516102a49190611285565b60405180910390f35b6102c760048036038101906102c29190611032565b610904565b6040516102d49190611285565b60405180910390f35b6102f760048036038101906102f29190610fa7565b610922565b6040516103049190611402565b60405180910390f35b60606003805461031c90611566565b80601f016020809104026020016040519081016040528092919081815260200182805461034890611566565b80156103955780601f1061036a57610100808354040283529160200191610395565b820191906000526020600020905b81548152906001019060200180831161037857829003601f168201915b5050505050905090565b600560009054906101000a900473ffffffffffffffffffffffffffffffffffffffff1681565b60006103d96103d26109a9565b84846109b1565b6001905092915050565b6000600254905090565b60006103fa848484610b7c565b6000600160008673ffffffffffffffffffffffffffffffffffffffff1673ffffffffffffffffffffffffffffffffffffffff16815260200190815260200160002060006104456109a9565b73ffffffffffffffffffffffffffffffffffffffff1673ffffffffffffffffffffffffffffffffffffffff168152602001908152602001600020549050828110156104c5576040517f08c379a00000000000000000000000000000000000000000000000000000000081526004016104bc90611362565b60405180910390fd5b6104e2856104d16109a9565b85846104dd91906114aa565b6109b1565b60019150509392505050565b60006012905090565b60006105996105046109a9565b8484600160006105126109a9565b73ffffffffffffffffffffffffffffffffffffffff1673ffffffffffffffffffffffffffffffffffffffff16815260200190815260200160002060008873ffffffffffffffffffffffffffffffffffffffff1673ffffffffffffffffffffffffffffffffffffffff168152602001908152602001600020546105949190611454565b6109b1565b6001905092915050565b600560009054906101000a900473ffffffffffffffffffffffffffffffffffffffff1673ffffffffffffffffffffffffffffffffffffffff163373ffffffffffffffffffffffffffffffffffffffff1614610633576040517f08c379a000000000000000000000000000000000000000000000000000000000815260040161062a906112e2565b60405180910390fd5b80600560006101000a81548173ffffffffffffffffffffffffffffffffffffffff021916908373ffffffffffffffffffffffffffffffffffffffff16021790555050565b60008060008373ffffffffffffffffffffffffffffffffffffffff1673ffffffffffffffffffffffffffffffffffffffff168152602001908152602001600020549050919050565b6060600480546106ce90611566565b80601f01602080910402602001604051908101604052809291908181526020018280546106fa90611566565b80156107475780601f1061071c57610100808354040283529160200191610747565b820191906000526020600020905b81548152906001019060200180831161072a57829003601f168201915b5050505050905090565b600560009054906101000a900473ffffffffffffffffffffffffffffffffffffffff1673ffffffffffffffffffffffffffffffffffffffff163373ffffffffffffffffffffffffffffffffffffffff16146107e1576040517f08c379a00000000000000000000000000000000000000000000000000000000081526004016107d890611342565b60405180910390fd5b61080d600560009054906101000a900473ffffffffffffffffffffffffffffffffffffffff1682610dfb565b50565b6000806001600061081f6109a9565b73ffffffffffffffffffffffffffffffffffffffff1673ffffffffffffffffffffffffffffffffffffffff16815260200190815260200160002060008573ffffffffffffffffffffffffffffffffffffffff1673ffffffffffffffffffffffffffffffffffffffff168152602001908152602001600020549050828110156108dc576040517f08c379a00000000000000000000000000000000000000000000000000000000081526004016108d3906113c2565b60405180910390fd5b6108f96108e76109a9565b8585846108f491906114aa565b6109b1565b600191505092915050565b60006109186109116109a9565b8484610b7c565b6001905092915050565b6000600160008473ffffffffffffffffffffffffffffffffffffffff1673ffffffffffffffffffffffffffffffffffffffff16815260200190815260200160002060008373ffffffffffffffffffffffffffffffffffffffff1673ffffffffffffffffffffffffffffffffffffffff16815260200190815260200160002054905092915050565b600033905090565b600073ffffffffffffffffffffffffffffffffffffffff168373ffffffffffffffffffffffffffffffffffffffff161415610a21576040517f08c379a0000000000000000000000000000000000000000000000000000000008152600401610a18906113a2565b60405180910390fd5b600073ffffffffffffffffffffffffffffffffffffffff168273ffffffffffffffffffffffffffffffffffffffff161415610a91576040517f08c379a0000000000000000000000000000000000000000000000000000000008152600401610a8890611302565b60405180910390fd5b80600160008573ffffffffffffffffffffffffffffffffffffffff1673ffffffffffffffffffffffffffffffffffffffff16815260200190815260200160002060008473ffffffffffffffffffffffffffffffffffffffff1673ffffffffffffffffffffffffffffffffffffffff168152602001908152602001600020819055508173ffffffffffffffffffffffffffffffffffffffff168373ffffffffffffffffffffffffffffffffffffffff167f8c5be1e5ebec7d5bd14f71427d1e84f3dd0314c0f7b2291e5b200ac8c7c3b92583604051610b6f9190611402565b60405180910390a3505050565b600073ffffffffffffffffffffffffffffffffffffffff168373ffffffffffffffffffffffffffffffffffffffff161415610bec576040517f08c379a0000000000000000000000000000000000000000000000000000000008152600401610be390611382565b60405180910390fd5b600073ffffffffffffffffffffffffffffffffffffffff168273ffffffffffffffffffffffffffffffffffffffff161415610c5c576040517f08c379a0000000000000000000000000000000000000000000000000000000008152600401610c53906112c2565b60405180910390fd5b610c67838383610f4f565b60008060008573ffffffffffffffffffffffffffffffffffffffff1673ffffffffffffffffffffffffffffffffffffffff16815260200190815260200160002054905081811015610ced576040517f08c379a0000000000000000000000000000000000000000000000000000000008152600401610ce490611322565b60405180910390fd5b8181610cf991906114aa565b6000808673ffffffffffffffffffffffffffffffffffffffff1673ffffffffffffffffffffffffffffffffffffffff16815260200190815260200160002081905550816000808573ffffffffffffffffffffffffffffffffffffffff1673ffffffffffffffffffffffffffffffffffffffff1681526020019081526020016000206000828254610d899190611454565b925050819055508273ffffffffffffffffffffffffffffffffffffffff168473ffffffffffffffffffffffffffffffffffffffff167fddf252ad1be2c89b69c2b068fc378daa952ba7f163c4a11628f55a4df523b3ef84604051610ded9190611402565b60405180910390a350505050565b600073ffffffffffffffffffffffffffffffffffffffff168273ffffffffffffffffffffffffffffffffffffffff161415610e6b576040517f08c379a0000000000000000000000000000000000000000000000000000000008152600401610e62906113e2565b60405180910390fd5b610e7760008383610f4f565b8060026000828254610e899190611454565b92505081905550806000808473ffffffffffffffffffffffffffffffffffffffff1673ffffffffffffffffffffffffffffffffffffffff1681526020019081526020016000206000828254610ede9190611454565b925050819055508173ffffffffffffffffffffffffffffffffffffffff16600073ffffffffffffffffffffffffffffffffffffffff167fddf252ad1be2c89b69c2b068fc378daa952ba7f163c4a11628f55a4df523b3ef83604051610f439190611402565b60405180910390a35050565b505050565b600081359050610f63816118f7565b92915050565b600081359050610f788161190e565b92915050565b600060208284031215610f9057600080fd5b6000610f9e84828501610f54565b91505092915050565b60008060408385031215610fba57600080fd5b6000610fc885828601610f54565b9250506020610fd985828601610f54565b9150509250929050565b600080600060608486031215610ff857600080fd5b600061100686828701610f54565b935050602061101786828701610f54565b925050604061102886828701610f69565b9150509250925092565b6000806040838503121561104557600080fd5b600061105385828601610f54565b925050602061106485828601610f69565b9150509250929050565b60006020828403121561108057600080fd5b600061108e84828501610f69565b91505092915050565b6110a0816114de565b82525050565b6110af816114f0565b82525050565b60006110c082611438565b6110ca8185611443565b93506110da818560208601611533565b6110e3816115f6565b840191505092915050565b60006110fb602383611443565b915061110682611607565b604082019050919050565b600061111e602783611443565b915061112982611656565b604082019050919050565b6000611141602283611443565b915061114c826116a5565b604082019050919050565b6000611164602683611443565b915061116f826116f4565b604082019050919050565b6000611187602283611443565b915061119282611743565b604082019050919050565b60006111aa602883611443565b91506111b582611792565b604082019050919050565b60006111cd602583611443565b91506111d8826117e1565b604082019050919050565b60006111f0602483611443565b91506111fb82611830565b604082019050919050565b6000611213602583611443565b915061121e8261187f565b604082019050919050565b6000611236601f83611443565b9150611241826118ce565b602082019050919050565b6112558161151c565b82525050565b61126481611526565b82525050565b600060208201905061127f6000830184611097565b92915050565b600060208201905061129a60008301846110a6565b92915050565b600060208201905081810360008301526112ba81846110b5565b905092915050565b600060208201905081810360008301526112db816110ee565b9050919050565b600060208201905081810360008301526112fb81611111565b9050919050565b6000602082019050818103600083015261131b81611134565b9050919050565b6000602082019050818103600083015261133b81611157565b9050919050565b6000602082019050818103600083015261135b8161117a565b9050919050565b6000602082019050818103600083015261137b8161119d565b9050919050565b6000602082019050818103600083015261139b816111c0565b9050919050565b600060208201905081810360008301526113bb816111e3565b9050919050565b600060208201905081810360008301526113db81611206565b9050919050565b600060208201905081810360008301526113fb81611229565b9050919050565b6000602082019050611417600083018461124c565b92915050565b6000602082019050611432600083018461125b565b92915050565b600081519050919050565b600082825260208201905092915050565b600061145f8261151c565b915061146a8361151c565b9250827fffffffffffffffffffffffffffffffffffffffffffffffffffffffffffffffff0382111561149f5761149e611598565b5b828201905092915050565b60006114b58261151c565b91506114c08361151c565b9250828210156114d3576114d2611598565b5b828203905092915050565b60006114e9826114fc565b9050919050565b60008115159050919050565b600073ffffffffffffffffffffffffffffffffffffffff82169050919050565b6000819050919050565b600060ff82169050919050565b60005b83811015611551578082015181840152602081019050611536565b83811115611560576000848401525b50505050565b6000600282049050600182168061157e57607f821691505b60208210811415611592576115916115c7565b5b50919050565b7f4e487b7100000000000000000000000000000000000000000000000000000000600052601160045260246000fd5b7f4e487b7100000000000000000000000000000000000000000000000000000000600052602260045260246000fd5b6000601f19601f8301169050919050565b7f45524332303a207472616e7366657220746f20746865207a65726f206164647260008201527f6573730000000000000000000000000000000000000000000000000000000000602082015250565b7f6f6e6c7920746865206d696e7465722063616e2061737369676e2061206e657760008201527f206d696e74657200000000000000000000000000000000000000000000000000602082015250565b7f45524332303a20617070726f766520746f20746865207a65726f20616464726560008201527f7373000000000000000000000000000000000000000000000000000000000000602082015250565b7f45524332303a207472616e7366657220616d6f756e742065786365656473206260008201527f616c616e63650000000000000000000000000000000000000000000000000000602082015250565b7f6f6e6c7920746865206d696e7465722063616e206d696e74206e657720636f6960008201527f6e73000000000000000000000000000000000000000000000000000000000000602082015250565b7f45524332303a207472616e7366657220616d6f756e742065786365656473206160008201527f6c6c6f77616e6365000000000000000000000000000000000000000000000000602082015250565b7f45524332303a207472616e736665722066726f6d20746865207a65726f20616460008201527f6472657373000000000000000000000000000000000000000000000000000000602082015250565b7f45524332303a20617070726f76652066726f6d20746865207a65726f2061646460008201527f7265737300000000000000000000000000000000000000000000000000000000602082015250565b7f45524332303a2064656372656173656420616c6c6f77616e63652062656c6f7760008201527f207a65726f000000000000000000000000000000000000000000000000000000602082015250565b7f45524332303a206d696e7420746f20746865207a65726f206164647265737300600082015250565b611900816114de565b811461190b57600080fd5b50565b6119178161151c565b811461192257600080fd5b5056fea26469706673582212200a32631d18524a4a5822d92848805d3b3cbcb9908fe013ae060ec20f37c1838664736f6c63430008040033",
  "immutableReferences": {},
  "source": "// SPDX-License-Identifier: MIT\n\npragma solidity >=0.7.0 <0.9.0;\n\nimport \"@openzeppelin/contracts/token/ERC20/ERC20.sol\";\n\ncontract PhiAlphaBeta is ERC20 {\n\n    address public minter;\n\n    constructor() ERC20(\"5ABcoin\", \"5AB\") {\n        minter = msg.sender;\n        _mint(minter, 1_000_000); // gives creator 1,000,000 5AB's\n    }\n    \n    function assignMinter(address newMinter) public {\n        require(msg.sender == minter, \"only the minter can assign a new minter\");\n        minter = newMinter;\n    }\n\n    function mint(uint amount) public {\n        require(msg.sender == minter, \"only the minter can mint new coins\");\n        _mint(minter, amount);\n    }\n}",
  "sourcePath": "/Users/sergiombp/Desktop/TDC-github/TDC-DAO/contracts/PhiAlphaBeta.sol",
  "compiler": {
    "name": "solc",
    "version": "0.8.4+commit.c7e474f2.Emscripten.clang"
  },
  "schemaVersion": "3.4.1",
  "updatedAt": "2021-05-20T00:32:04.573Z",
  "devdoc": {
    "kind": "dev",
    "methods": {
      "allowance(address,address)": {
        "details": "See {IERC20-allowance}."
      },
      "approve(address,uint256)": {
        "details": "See {IERC20-approve}. Requirements: - `spender` cannot be the zero address."
      },
      "balanceOf(address)": {
        "details": "See {IERC20-balanceOf}."
      },
      "decimals()": {
        "details": "Returns the number of decimals used to get its user representation. For example, if `decimals` equals `2`, a balance of `505` tokens should be displayed to a user as `5,05` (`505 / 10 ** 2`). Tokens usually opt for a value of 18, imitating the relationship between Ether and Wei. This is the value {ERC20} uses, unless this function is overridden; NOTE: This information is only used for _display_ purposes: it in no way affects any of the arithmetic of the contract, including {IERC20-balanceOf} and {IERC20-transfer}."
      },
      "decreaseAllowance(address,uint256)": {
        "details": "Atomically decreases the allowance granted to `spender` by the caller. This is an alternative to {approve} that can be used as a mitigation for problems described in {IERC20-approve}. Emits an {Approval} event indicating the updated allowance. Requirements: - `spender` cannot be the zero address. - `spender` must have allowance for the caller of at least `subtractedValue`."
      },
      "increaseAllowance(address,uint256)": {
        "details": "Atomically increases the allowance granted to `spender` by the caller. This is an alternative to {approve} that can be used as a mitigation for problems described in {IERC20-approve}. Emits an {Approval} event indicating the updated allowance. Requirements: - `spender` cannot be the zero address."
      },
      "name()": {
        "details": "Returns the name of the token."
      },
      "symbol()": {
        "details": "Returns the symbol of the token, usually a shorter version of the name."
      },
      "totalSupply()": {
        "details": "See {IERC20-totalSupply}."
      },
      "transfer(address,uint256)": {
        "details": "See {IERC20-transfer}. Requirements: - `recipient` cannot be the zero address. - the caller must have a balance of at least `amount`."
      },
      "transferFrom(address,address,uint256)": {
        "details": "See {IERC20-transferFrom}. Emits an {Approval} event indicating the updated allowance. This is not required by the EIP. See the note at the beginning of {ERC20}. Requirements: - `sender` and `recipient` cannot be the zero address. - `sender` must have a balance of at least `amount`. - the caller must have allowance for ``sender``'s tokens of at least `amount`."
      }
    },
    "version": 1
  },
  "userdoc": {
    "kind": "user",
    "methods": {},
    "version": 1
  }
}