{
  "contractName": "TDCdao",
  "abi": [
    {
      "inputs": [
        {
          "internalType": "string",
          "name": "_motionBody",
          "type": "string"
        }
      ],
      "name": "proposeMotion",
      "outputs": [],
      "stateMutability": "nonpayable",
      "type": "function"
    },
    {
      "inputs": [
        {
          "internalType": "int256",
          "name": "motionID",
          "type": "int256"
        }
      ],
      "name": "discussedMotion",
      "outputs": [],
      "stateMutability": "nonpayable",
      "type": "function"
    },
    {
      "inputs": [
        {
          "internalType": "int256",
          "name": "motionID",
          "type": "int256"
        }
      ],
      "name": "motionToVote",
      "outputs": [],
      "stateMutability": "nonpayable",
      "type": "function"
    },
    {
      "inputs": [
        {
          "internalType": "int256",
          "name": "motionID",
          "type": "int256"
        },
        {
          "internalType": "bool",
          "name": "vote",
          "type": "bool"
        }
      ],
      "name": "castVote",
      "outputs": [],
      "stateMutability": "nonpayable",
      "type": "function"
    },
    {
      "inputs": [
        {
          "internalType": "int256",
          "name": "motionID",
          "type": "int256"
        }
      ],
      "name": "endVoting",
      "outputs": [],
      "stateMutability": "nonpayable",
      "type": "function"
    },
    {
      "inputs": [
        {
          "internalType": "int256",
          "name": "motionID",
          "type": "int256"
        }
      ],
      "name": "getMotion",
      "outputs": [
        {
          "components": [
            {
              "internalType": "string",
              "name": "creator",
              "type": "string"
            },
            {
              "internalType": "address",
              "name": "creatorAddress",
              "type": "address"
            },
            {
              "internalType": "string",
              "name": "motionBody",
              "type": "string"
            },
            {
              "internalType": "bool",
              "name": "passed",
              "type": "bool"
            },
            {
              "internalType": "bool",
              "name": "discussed",
              "type": "bool"
            },
            {
              "internalType": "bool",
              "name": "openToVote",
              "type": "bool"
            },
            {
              "components": [
                {
                  "internalType": "string",
                  "name": "voter",
                  "type": "string"
                },
                {
                  "internalType": "address",
                  "name": "voterAddress",
                  "type": "address"
                },
                {
                  "internalType": "bool",
                  "name": "pass",
                  "type": "bool"
                }
              ],
              "internalType": "struct TDCdao.Vote[]",
              "name": "votes",
              "type": "tuple[]"
            }
          ],
          "internalType": "struct TDCdao.Motion",
          "name": "motion",
          "type": "tuple"
        }
      ],
      "stateMutability": "view",
      "type": "function"
    },
    {
      "inputs": [],
      "name": "getNumMotions",
      "outputs": [
        {
          "internalType": "int256",
          "name": "num",
          "type": "int256"
        }
      ],
      "stateMutability": "view",
      "type": "function"
    }
  ],
  "bytecode": "0x60806040527fffffffffffffffffffffffffffffffffffffffffffffffffffffffffffffffff60005534801561003457600080fd5b50611248806100446000396000f3fe608060405234801561001057600080fd5b506004361061007d5760003560e01c8063820fa3551161005b578063820fa355146100d6578063c11f80ff146100f2578063e7c669aa14610122578063f5b927201461013e5761007d565b806321fcd7ce1461008257806356bd31781461009e57806376acdf55146100ba575b600080fd5b61009c60048036038101906100979190610c46565b61015c565b005b6100b860048036038101906100b39190610c6f565b6101f0565b005b6100d460048036038101906100cf9190610cab565b6103dc565b005b6100f060048036038101906100eb9190610c46565b610523565b005b61010c60048036038101906101079190610c46565b610572565b6040516101199190610ef0565b60405180910390f35b61013c60048036038101906101379190610c46565b6108e9565b005b61014661096c565b6040516101539190610ed5565b60405180910390f35b600081121561016a57600080fd5b60005481131561017957600080fd5b60006002600083815260200190815260200160002090508060030160029054906101000a900460ff16156101ec576101b381600401610975565b8160030160006101000a81548160ff02191690831515021790555060008160030160026101000a81548160ff0219169083151502179055505b5050565b60008212156101fe57600080fd5b60005482131561020d57600080fd5b6000600160003373ffffffffffffffffffffffffffffffffffffffff1673ffffffffffffffffffffffffffffffffffffffff16815260200190815260200160002090506000604051806060016040528083805461026990611051565b80601f016020809104026020016040519081016040528092919081815260200182805461029590611051565b80156102e25780601f106102b7576101008083540402835291602001916102e2565b820191906000526020600020905b8154815290600101906020018083116102c557829003601f168201915b505050505081526020013373ffffffffffffffffffffffffffffffffffffffff168152602001841515815250905060026000858152602001908152602001600020600401819080600181540180825580915050600190039060005260206000209060020201600090919091909150600082015181600001908051906020019061036c929190610a2b565b5060208201518160010160006101000a81548173ffffffffffffffffffffffffffffffffffffffff021916908373ffffffffffffffffffffffffffffffffffffffff16021790555060408201518160010160146101000a81548160ff021916908315150217905550505050505050565b6000808154809291906103ee906110b4565b91905055506000600160003373ffffffffffffffffffffffffffffffffffffffff1673ffffffffffffffffffffffffffffffffffffffff1681526020019081526020016000209050600060026000805481526020019081526020016000209050818160000190805461045f90611051565b61046a929190610ab1565b50338160010160006101000a81548173ffffffffffffffffffffffffffffffffffffffff021916908373ffffffffffffffffffffffffffffffffffffffff160217905550828160020190805190602001906104c6929190610a2b565b5060008160030160006101000a81548160ff02191690831515021790555060008160030160016101000a81548160ff02191690831515021790555060008160030160026101000a81548160ff021916908315150217905550505050565b600081121561053157600080fd5b60005481131561054057600080fd5b60016002600083815260200190815260200160002060030160016101000a81548160ff02191690831515021790555050565b61057a610b3e565b600082121561058857600080fd5b60005482131561059757600080fd5b600260008381526020019081526020016000206040518060e00160405290816000820180546105c590611051565b80601f01602080910402602001604051908101604052809291908181526020018280546105f190611051565b801561063e5780601f106106135761010080835404028352916020019161063e565b820191906000526020600020905b81548152906001019060200180831161062157829003601f168201915b505050505081526020016001820160009054906101000a900473ffffffffffffffffffffffffffffffffffffffff1673ffffffffffffffffffffffffffffffffffffffff1673ffffffffffffffffffffffffffffffffffffffff1681526020016002820180546106ad90611051565b80601f01602080910402602001604051908101604052809291908181526020018280546106d990611051565b80156107265780601f106106fb57610100808354040283529160200191610726565b820191906000526020600020905b81548152906001019060200180831161070957829003601f168201915b505050505081526020016003820160009054906101000a900460ff161515151581526020016003820160019054906101000a900460ff161515151581526020016003820160029054906101000a900460ff1615151515815260200160048201805480602002602001604051908101604052809291908181526020016000905b828210156108da57838290600052602060002090600202016040518060600160405290816000820180546107d890611051565b80601f016020809104026020016040519081016040528092919081815260200182805461080490611051565b80156108515780601f1061082657610100808354040283529160200191610851565b820191906000526020600020905b81548152906001019060200180831161083457829003601f168201915b505050505081526020016001820160009054906101000a900473ffffffffffffffffffffffffffffffffffffffff1673ffffffffffffffffffffffffffffffffffffffff1673ffffffffffffffffffffffffffffffffffffffff1681526020016001820160149054906101000a900460ff161515151581525050815260200190600101906107a5565b50505050815250509050919050565b60008112156108f757600080fd5b60005481131561090657600080fd5b600115156002600083815260200190815260200160002060030160019054906101000a900460ff1615151461093a57600080fd5b60016002600083815260200190815260200160002060030160026101000a81548160ff02191690831515021790555050565b60008054905090565b600080600090506000805b8480549050811015610a1e578481815481106109c5577f4e487b7100000000000000000000000000000000000000000000000000000000600052603260045260246000fd5b906000526020600020906002020160010160149054906101000a900460ff16156109fc5782806109f4906110b4565b935050610a0b565b8180610a07906110b4565b9250505b8080610a16906110fd565b915050610980565b5080821392505050919050565b828054610a3790611051565b90600052602060002090601f016020900481019282610a595760008555610aa0565b82601f10610a7257805160ff1916838001178555610aa0565b82800160010185558215610aa0579182015b82811115610a9f578251825591602001919060010190610a84565b5b509050610aad9190610b97565b5090565b828054610abd90611051565b90600052602060002090601f016020900481019282610adf5760008555610b2d565b82601f10610af05780548555610b2d565b82800160010185558215610b2d57600052602060002091601f016020900482015b82811115610b2c578254825591600101919060010190610b11565b5b509050610b3a9190610b97565b5090565b6040518060e0016040528060608152602001600073ffffffffffffffffffffffffffffffffffffffff16815260200160608152602001600015158152602001600015158152602001600015158152602001606081525090565b5b80821115610bb0576000816000905550600101610b98565b5090565b6000610bc7610bc284610f37565b610f12565b905082815260208101848484011115610bdf57600080fd5b610bea84828561100f565b509392505050565b600081359050610c01816111e4565b92915050565b600081359050610c16816111fb565b92915050565b600082601f830112610c2d57600080fd5b8135610c3d848260208601610bb4565b91505092915050565b600060208284031215610c5857600080fd5b6000610c6684828501610c07565b91505092915050565b60008060408385031215610c8257600080fd5b6000610c9085828601610c07565b9250506020610ca185828601610bf2565b9150509250929050565b600060208284031215610cbd57600080fd5b600082013567ffffffffffffffff811115610cd757600080fd5b610ce384828501610c1c565b91505092915050565b6000610cf88383610e85565b905092915050565b610d0981610fbd565b82525050565b6000610d1a82610f78565b610d248185610f9b565b935083602082028501610d3685610f68565b8060005b85811015610d725784840389528151610d538582610cec565b9450610d5e83610f8e565b925060208a01995050600181019050610d3a565b50829750879550505050505092915050565b610d8d81610fcf565b82525050565b610d9c81610fdb565b82525050565b6000610dad82610f83565b610db78185610fac565b9350610dc781856020860161101e565b610dd0816111d3565b840191505092915050565b600060e0830160008301518482036000860152610df88282610da2565b9150506020830151610e0d6020860182610d00565b5060408301518482036040860152610e258282610da2565b9150506060830151610e3a6060860182610d84565b506080830151610e4d6080860182610d84565b5060a0830151610e6060a0860182610d84565b5060c083015184820360c0860152610e788282610d0f565b9150508091505092915050565b60006060830160008301518482036000860152610ea28282610da2565b9150506020830151610eb76020860182610d00565b506040830151610eca6040860182610d84565b508091505092915050565b6000602082019050610eea6000830184610d93565b92915050565b60006020820190508181036000830152610f0a8184610ddb565b905092915050565b6000610f1c610f2d565b9050610f288282611083565b919050565b6000604051905090565b600067ffffffffffffffff821115610f5257610f516111a4565b5b610f5b826111d3565b9050602081019050919050565b6000819050602082019050919050565b600081519050919050565b600081519050919050565b6000602082019050919050565b600082825260208201905092915050565b600082825260208201905092915050565b6000610fc882610fe5565b9050919050565b60008115159050919050565b6000819050919050565b600073ffffffffffffffffffffffffffffffffffffffff82169050919050565b6000819050919050565b82818337600083830152505050565b60005b8381101561103c578082015181840152602081019050611021565b8381111561104b576000848401525b50505050565b6000600282049050600182168061106957607f821691505b6020821081141561107d5761107c611175565b5b50919050565b61108c826111d3565b810181811067ffffffffffffffff821117156110ab576110aa6111a4565b5b80604052505050565b60006110bf82610fdb565b91507f7fffffffffffffffffffffffffffffffffffffffffffffffffffffffffffffff8214156110f2576110f1611146565b5b600182019050919050565b600061110882611005565b91507fffffffffffffffffffffffffffffffffffffffffffffffffffffffffffffffff82141561113b5761113a611146565b5b600182019050919050565b7f4e487b7100000000000000000000000000000000000000000000000000000000600052601160045260246000fd5b7f4e487b7100000000000000000000000000000000000000000000000000000000600052602260045260246000fd5b7f4e487b7100000000000000000000000000000000000000000000000000000000600052604160045260246000fd5b6000601f19601f8301169050919050565b6111ed81610fcf565b81146111f857600080fd5b50565b61120481610fdb565b811461120f57600080fd5b5056fea2646970667358221220de30df19e992f170477f959657dfcf3a31d589128bb972852d1d760a857a9a2f64736f6c63430008040033",
  "immutableReferences": {},
  "source": "// SPDX-License-Identifier: MIT\n\npragma solidity >=0.7.0 <0.9.0;\n\ncontract TDCdao {\n\n    int motionCount = -1;\n    mapping (address => string) private brothers;\n    mapping (int => Motion) private motions;\n\n    struct Motion {\n        string creator;\n        address creatorAddress;\n        string motionBody;\n        bool passed;\n        bool discussed;\n        bool openToVote;\n        Vote[] votes;\n    }\n\n    struct Vote {\n        string voter;\n        address voterAddress;\n        bool pass;\n    }\n\n    function proposeMotion(string memory _motionBody) public {\n        motionCount++;\n\n        string storage _name = brothers[msg.sender];\n        Motion storage newMotion = motions[motionCount];\n        \n        newMotion.creator = _name;\n        newMotion.creatorAddress = msg.sender;\n        newMotion.motionBody = _motionBody;\n        newMotion.passed = false;\n        newMotion.discussed = false;\n        newMotion.openToVote = false;\n        }\n\n    function discussedMotion(int motionID) public {\n        require (motionID >= 0);\n        require (motionID <= motionCount);\n        motions[motionID].discussed = true;\n    }\n\n    function motionToVote(int motionID) public {\n        require (motionID >= 0);\n        require (motionID <= motionCount);\n        require (motions[motionID].discussed == true);\n        motions[motionID].openToVote = true;\n    }\n\n    function castVote(int motionID, bool vote) public {\n        require (motionID >= 0);\n        require (motionID <= motionCount);\n\n        string storage _voter = brothers[msg.sender];\n        Vote memory newVote = Vote(_voter, msg.sender, vote);\n        motions[motionID].votes.push(newVote);\n    }\n\n    function endVoting(int motionID) public {\n        require (motionID >= 0);\n        require (motionID <= motionCount);\n\n        Motion storage motion = motions[motionID];\n        if (motion.openToVote) {\n            motion.passed = _getVoteResult(motion.votes);\n            motion.openToVote = false;\n        }\n    }\n\n    function _getVoteResult(Vote[] storage votes) private view returns (bool result) {\n        int passVotes = 0;\n        int rejectVotes = 0;\n\n        for (uint i = 0; i < votes.length; i++) {\n            if (votes[i].pass) {\n                passVotes++;\n            } else {\n                rejectVotes++;\n            }\n        }\n        return passVotes > rejectVotes;\n    }\n    \n    function getMotion(int motionID) public view returns (Motion memory motion){\n        require (motionID >= 0);\n        require (motionID <= motionCount);\n        return motions[motionID];\n    }\n\n    function getNumMotions() public view returns (int num) {\n        return motionCount;\n    }\n}\n\n\n// TODO making motions to be their own contract\n// using a struct was limiting, was not able to limit votes on a motion to one per address.\ncontract MotionContract {\n    address creatorAddress;\n    string motionBody;\n    bool passed;\n    bool discussed;\n    bool openToVote;\n    Vote[] votes;\n\n    struct Vote {\n        string voter;\n        address voterAddress;\n        bool pass;\n    }\n}",
  "sourcePath": "/Users/sergiombp/Desktop/TDC-github/TDC-DAO/contracts/TDCdao.sol",
  "compiler": {
    "name": "solc",
    "version": "0.8.4+commit.c7e474f2.Emscripten.clang"
  },
  "schemaVersion": "3.4.1",
  "updatedAt": "2021-05-20T00:32:04.584Z",
  "devdoc": {
    "kind": "dev",
    "methods": {},
    "version": 1
  },
  "userdoc": {
    "kind": "user",
    "methods": {},
    "version": 1
  }
}