{
  "contractName": "TDCdao",
  "abi": [
    {
      "inputs": [
        {
          "internalType": "string",
          "name": "_motionBody",
          "type": "string"
        }
      ],
      "name": "proposeMotion",
      "outputs": [],
      "stateMutability": "nonpayable",
      "type": "function"
    },
    {
      "inputs": [
        {
          "internalType": "int256",
          "name": "motionID",
          "type": "int256"
        }
      ],
      "name": "discussedMotion",
      "outputs": [],
      "stateMutability": "nonpayable",
      "type": "function"
    },
    {
      "inputs": [
        {
          "internalType": "int256",
          "name": "motionID",
          "type": "int256"
        }
      ],
      "name": "getMotion",
      "outputs": [
        {
          "components": [
            {
              "internalType": "string",
              "name": "creator",
              "type": "string"
            },
            {
              "internalType": "address",
              "name": "creatorAddress",
              "type": "address"
            },
            {
              "internalType": "string",
              "name": "motionBody",
              "type": "string"
            },
            {
              "internalType": "bool",
              "name": "passed",
              "type": "bool"
            },
            {
              "internalType": "bool",
              "name": "discussed",
              "type": "bool"
            }
          ],
          "internalType": "struct TDCdao.Motion",
          "name": "motion",
          "type": "tuple"
        }
      ],
      "stateMutability": "view",
      "type": "function",
      "constant": true
    }
  ],
  "bytecode": "0x60806040527fffffffffffffffffffffffffffffffffffffffffffffffffffffffffffffffff60005534801561003457600080fd5b506109ed806100446000396000f3fe608060405234801561001057600080fd5b50600436106100415760003560e01c806376acdf5514610046578063820fa35514610062578063c11f80ff1461007e575b600080fd5b610060600480360381019061005b9190610623565b6100ae565b005b61007c600480360381019061007791906105fa565b6101d8565b005b610098600480360381019061009391906105fa565b61020a565b6040516100a59190610738565b60405180910390f35b6000808154809291906100c0906108b9565b91905055506000600160003373ffffffffffffffffffffffffffffffffffffffff1673ffffffffffffffffffffffffffffffffffffffff1681526020019081526020016000209050600060026000805481526020019081526020016000209050818160000190805461013190610856565b61013c929190610404565b50338160010160006101000a81548173ffffffffffffffffffffffffffffffffffffffff021916908373ffffffffffffffffffffffffffffffffffffffff16021790555082816002019080519060200190610198929190610491565b5060008160030160006101000a81548160ff02191690831515021790555060008160030160016101000a81548160ff021916908315150217905550505050565b60016002600083815260200190815260200160002060030160016101000a81548160ff02191690831515021790555050565b610212610517565b600082121561022057600080fd5b60005482131561022f57600080fd5b600260008381526020019081526020016000206040518060a001604052908160008201805461025d90610856565b80601f016020809104026020016040519081016040528092919081815260200182805461028990610856565b80156102d65780601f106102ab576101008083540402835291602001916102d6565b820191906000526020600020905b8154815290600101906020018083116102b957829003601f168201915b505050505081526020016001820160009054906101000a900473ffffffffffffffffffffffffffffffffffffffff1673ffffffffffffffffffffffffffffffffffffffff1673ffffffffffffffffffffffffffffffffffffffff16815260200160028201805461034590610856565b80601f016020809104026020016040519081016040528092919081815260200182805461037190610856565b80156103be5780601f10610393576101008083540402835291602001916103be565b820191906000526020600020905b8154815290600101906020018083116103a157829003601f168201915b505050505081526020016003820160009054906101000a900460ff161515151581526020016003820160019054906101000a900460ff1615151515815250509050919050565b82805461041090610856565b90600052602060002090601f0160209004810192826104325760008555610480565b82601f106104435780548555610480565b8280016001018555821561048057600052602060002091601f016020900482015b8281111561047f578254825591600101919060010190610464565b5b50905061048d9190610560565b5090565b82805461049d90610856565b90600052602060002090601f0160209004810192826104bf5760008555610506565b82601f106104d857805160ff1916838001178555610506565b82800160010185558215610506579182015b828111156105055782518255916020019190600101906104ea565b5b5090506105139190610560565b5090565b6040518060a0016040528060608152602001600073ffffffffffffffffffffffffffffffffffffffff168152602001606081526020016000151581526020016000151581525090565b5b80821115610579576000816000905550600101610561565b5090565b600061059061058b8461077f565b61075a565b9050828152602081018484840111156105a857600080fd5b6105b3848285610814565b509392505050565b6000813590506105ca816109a0565b92915050565b600082601f8301126105e157600080fd5b81356105f184826020860161057d565b91505092915050565b60006020828403121561060c57600080fd5b600061061a848285016105bb565b91505092915050565b60006020828403121561063557600080fd5b600082013567ffffffffffffffff81111561064f57600080fd5b61065b848285016105d0565b91505092915050565b61066d816107cc565b82525050565b61067c816107de565b82525050565b600061068d826107b0565b61069781856107bb565b93506106a7818560208601610823565b6106b08161098f565b840191505092915050565b600060a08301600083015184820360008601526106d88282610682565b91505060208301516106ed6020860182610664565b50604083015184820360408601526107058282610682565b915050606083015161071a6060860182610673565b50608083015161072d6080860182610673565b508091505092915050565b6000602082019050818103600083015261075281846106bb565b905092915050565b6000610764610775565b90506107708282610888565b919050565b6000604051905090565b600067ffffffffffffffff82111561079a57610799610960565b5b6107a38261098f565b9050602081019050919050565b600081519050919050565b600082825260208201905092915050565b60006107d7826107f4565b9050919050565b60008115159050919050565b6000819050919050565b600073ffffffffffffffffffffffffffffffffffffffff82169050919050565b82818337600083830152505050565b60005b83811015610841578082015181840152602081019050610826565b83811115610850576000848401525b50505050565b6000600282049050600182168061086e57607f821691505b6020821081141561088257610881610931565b5b50919050565b6108918261098f565b810181811067ffffffffffffffff821117156108b0576108af610960565b5b80604052505050565b60006108c4826107ea565b91507f7fffffffffffffffffffffffffffffffffffffffffffffffffffffffffffffff8214156108f7576108f6610902565b5b600182019050919050565b7f4e487b7100000000000000000000000000000000000000000000000000000000600052601160045260246000fd5b7f4e487b7100000000000000000000000000000000000000000000000000000000600052602260045260246000fd5b7f4e487b7100000000000000000000000000000000000000000000000000000000600052604160045260246000fd5b6000601f19601f8301169050919050565b6109a9816107ea565b81146109b457600080fd5b5056fea264697066735822122046fb084cb9b55909ff2172237154f9fb31d9ec053771e157246b380604df230d64736f6c63430008040033",
  "immutableReferences": {},
  "source": "// SPDX-License-Identifier: MIT\n\npragma solidity >=0.7.0 <0.9.0;\n\ncontract TDCdao {\n\n    int motionCount = -1;\n    mapping (address => string) private brothers;\n    mapping (int => Motion) private motions;\n    \n    struct Motion {\n        string creator;\n        address creatorAddress;\n        string motionBody;\n        bool passed;\n        bool discussed;\n    }\n\n    function proposeMotion(string memory _motionBody) public {\n        motionCount++;\n\n        string storage _name = brothers[msg.sender];\n        Motion storage newMotion = motions[motionCount];\n        \n        newMotion.creator = _name;\n        newMotion.creatorAddress = msg.sender;\n        newMotion.motionBody = _motionBody;\n        newMotion.passed = false;\n        newMotion.discussed = false;\n    \n        }\n\n    function discussedMotion(int motionID) public {\n        motions[motionID].discussed = true;\n    }\n    \n    function getMotion(int motionID) public view returns (Motion memory motion){\n        require (motionID >= 0);\n        require (motionID <= motionCount);\n        return motions[motionID];\n    }\n}                  ",
  "sourcePath": "/Users/sergiombp/Desktop/TDC-github/TDC-DAO/contracts/TDCdao.sol",
  "compiler": {
    "name": "solc",
    "version": "0.8.4+commit.c7e474f2.Emscripten.clang"
  },
  "schemaVersion": "3.4.1",
  "updatedAt": "2021-05-18T22:59:35.405Z",
  "networkType": "ethereum",
  "devdoc": {
    "kind": "dev",
    "methods": {},
    "version": 1
  },
  "userdoc": {
    "kind": "user",
    "methods": {},
    "version": 1
  }
}